:020000020000FC
:1000000004E00EBF0FE50DBF08E0009360000E9402
:1000100013000E94180032E025E00E942F0111E633
:100020000E94AD00FFCF0FEF01BB00E002BB0895BF
:1000300013E30E942B0012E30E942B0018E20E949F
:100040002B001CE00E942B0016E00E942B0011E008
:100050000E942B000895012F007F02BB9098919A77
:100060000F931F932F933F934F935F932AE030E0BA
:1000700040E050E0009160001AEF00001A95E9F7A7
:100080000A95D1F7215030404040504099F75F9198
:100090004F913F912F911F910F9191980F931F9323
:1000A0002F933F934F935F932AE030E040E050E07E
:1000B000009160001AEF00001A95E9F70A95D1F750
:1000C000215030404040504099F75F914F913F910F
:1000D0002F911F910F91012F0F70029502BB9098E5
:1000E000919A0F931F932F933F934F935F932AE01F
:1000F00030E040E050E0009160001AEF00001A95F7
:10010000E9F70A95D1F7215030404040504099F727
:100110005F914F913F912F911F910F9191980F9364
:100120001F932F933F934F935F932AE030E040E07B
:1001300050E0009160001AEF00001A95E9F70A9567
:10014000D1F7215030404040504099F75F914F9196
:100150003F912F911F910F910895012F007F02BBB6
:10016000909A919A0F931F932F933F934F935F937E
:100170002AE030E040E050E0009160001AEF00001B
:100180001A95E9F70A95D1F7215030404040504088
:1001900099F75F914F913F912F911F910F919198F6
:1001A0000F931F932F933F934F935F932AE030E079
:1001B00040E050E0009160001AEF00001A95E9F766
:1001C0000A95D1F7215030404040504099F75F9157
:1001D0004F913F912F911F910F91012F0F70029519
:1001E00002BB909A919A0F931F932F933F934F9333
:1001F0005F932AE030E040E050E0009160001AEFA9
:1002000000001A95E9F70A95D1F721503040404097
:10021000504099F75F914F913F912F911F910F910E
:1002200091980F931F932F933F934F935F932AE0DF
:1002300030E040E050E0009160001AEF00001A95B5
:10024000E9F70A95D1F7215030404040504099F7E6
:100250005F914F913F912F911F910F9108953130F0
:1002600009F430E8323051F430EC320F132F0E9491
:0E0270002B00089511E00E942B000895D3CEBC
:00000001FF
