:020000020000FC
:1000000004E00EBF0FE50DBF08E00093600070E054
:100010000E9421010E94260132E025E00E943D025B
:1000200000EF0ABB0FE00BBB70E00E94C60040333C
:10003000D8F34B33CCF7142F0E94BB010E94BF00B2
:100040000E94C600733008F0FBCF403378F04B338A
:100050006CF4142F0E94BB010E94BF000E94C600D6
:10006000403320F04B3314F40C942E00142F0E94D4
:10007000BB01842F70E00E94C6004033D8F34B339D
:10008000CCF7723008F0F7CF142F0E94BB010E940A
:10009000B8000E94C6004B334CF4733010F00C943F
:1000A0004900142F0E94BB010E94B8001DE30E946A
:1000B000BB018B3241F08D3259F08A32B9F08F3268
:1000C000D9F00C945600561F0E94A7000C94A5006E
:1000D00056173CF4651B1DE20E94BB01562F0C9481
:1000E0007200561B0E94A7000C94A500569F502D2D
:1000F0000E94A7000C94A5000027560B18F003954A
:100100000C947D00560F602F0AE060178CF40A955E
:100110006A9500E3601F162F0E94BB011EE20E9439
:10012000BB0100E3501F152F0E94BB010C94A500DA
:10013000052F562F0E94A7001EE20E94BB01502FE0
:1001400000E3501F152F0E94BB010C94A5006627E9
:100150005A5010F06395FCCF565F00E3601F162FD6
:100160000E94BB0100E3501F152F0E94BB010895A0
:100170000AE0609F602D042F0053601F08950AE07D
:10018000509F502D042F0053501F08950FE00BBBBC
:1001900009B30F700F30D1F709B30F700F30E1F3CF
:1001A0000F931F932F933F934F935F9325E030E07E
:1001B00040E050E0009160001AEF00001A95E9F766
:1001C0000A95D1F7215030404040504099F75F9157
:1001D0004F913F912F911F910F9109B30F700F30E5
:1001E000D9F20FE70BBB000009B30F700F30A9F471
:1001F0000FEB0BBB000009B30F700F3089F40FED4C
:100200000BBB000009B30F700F3069F40FEE0BBB8E
:10021000000009B30F700F3049F4E0E0F6E009C0C8
:10022000E4E0F6E006C0E8E0F6E003C0ECE0F6E06B
:1002300000C0069510F49591FCCF9491492F7395C9
:1002400008950FEF01BB00E002BB089513E30E9485
:10025000390112E30E94390118E20E9439011CE0C1
:100260000E94390116E00E94390111E00E94390113
:100270000895012F007F02BB9098919A0F931F93CE
:100280002F933F934F935F932AE030E040E050E09C
:10029000009160001AEF00001A95E9F70A95D1F76E
:1002A000215030404040504099F75F914F913F912D
:1002B0002F911F910F9191980F931F932F933F931D
:1002C0004F935F932AE030E040E050E000916000FF
:1002D0001AEF00001A95E9F70A95D1F7215030403E
:1002E0004040504099F75F914F913F912F911F915E
:1002F0000F91012F0F70029502BB9098919A0F9366
:100300001F932F933F934F935F932AE030E040E099
:1003100050E0009160001AEF00001A95E9F70A9585
:10032000D1F7215030404040504099F75F914F91B4
:100330003F912F911F910F9191980F931F932F939E
:100340003F934F935F932AE030E040E050E000910C
:1003500060001AEF00001A95E9F70A95D1F72150CD
:1003600030404040504099F75F914F913F912F911D
:100370001F910F910895012F007F02BB909A919ACF
:100380000F931F932F933F934F935F932AE030E097
:1003900040E050E0009160001AEF00001A95E9F784
:1003A0000A95D1F7215030404040504099F75F9175
:1003B0004F913F912F911F910F9191980F931F9300
:1003C0002F933F934F935F932AE030E040E050E05B
:1003D000009160001AEF00001A95E9F70A95D1F72D
:1003E000215030404040504099F75F914F913F91EC
:1003F0002F911F910F91012F0F70029502BB909AC0
:10040000919A0F931F932F933F934F935F932AE0FB
:1004100030E040E050E0009160001AEF00001A95D3
:10042000E9F70A95D1F7215030404040504099F704
:100430005F914F913F912F911F910F9191980F9341
:100440001F932F933F934F935F932AE030E040E058
:1004500050E0009160001AEF00001A95E9F70A9544
:10046000D1F7215030404040504099F75F914F9173
:100470003F912F911F910F910895313009F430E889
:10048000323051F430EC320F132F0E9439010895AD
:0A04900011E00E9439010895C8CD63
:100600002F2A2D2B3936333D383532303734314FA0
:00000001FF
